:0400000013EF00F00A
:060008004382FFED00F051
:100018004380E0CF1CF01CC0E0FF43901000A1EF2C
:1000280002F0000E266E000E256E40EF00F0800EE6
:100038001D14216E226A800E21182210D8A427EFE1
:1000480000F029EF00F02CEF00F081882DEF00F090
:10005800819881500809816E140EE82EFED78150D0
:10006800F70B816E140EE82EFED7D8901D341D6E46
:100078001E341E6E254A262A26BE4CEF00F0265056
:1000880009E1080E255CD8A04CEF00F04EEF00F017
:100098001BEF00F0000E266E000E256E7BEF00F0C1
:1000A800000E1F14236E800E2014246E800E241858
:1000B8002310D8A462EF00F064EF00F067EF00F0BF
:1000C800818868EF00F0819881500809816E140ECC
:1000D800E82EFED78150F70B816E140EE82EFED75E
:1000E800D8901F341F6E2034206E254A262A26BE3B
:1000F80087EF00F0265009E1100E255CD8A087EFA5
:1001080000F089EF00F054EF00F01200000E0A6EC4
:10011800000E096EB5EF00F0800E0114056E066A38
:10012800800E05180610D8A49CEF00F09EEF00F092
:10013800A1EF00F08188A2EF00F0819881500809B2
:10014800816E140EE82EFED78150F70B816E140EC7
:10015800E82EFED7D8900134016E0234026E094AA7
:100168000A2A0ABEC1EF00F00A5009E1080E095C2C
:10017800D8A0C1EF00F0C3EF00F090EF00F0000E40
:100188000A6E000E096EF0EF00F0000E0314076E01
:10019800800E0414086E800E08180710D8A4D7EF34
:1001A80000F0D9EF00F0DCEF00F08188DDEF00F01F
:1001B800819881500809816E140EE82EFED781506F
:1001C800F70B816E140EE82EFED7D8900334036E19
:1001D8000434046E094A0A2A0ABEFCEF00F00A50E9
:1001E80009E1100E095CD8A0FCEF00F0FEEF00F06A
:1001F800C9EF00F012000600D9CF15F0DACF16F0DB
:10020800F29EF292000E1B6E00F01B2A010E1B6478
:1002180010EF01F012EF01F008EF01F08150800BB0
:10022800176E8050010B186E8050020B196E82CF2A
:100238001AF01750D8B423EF01F025EF01F026EF9C
:1002480001F01A861850D8B42CEF01F02EEF01F007
:100258002FEF01F01A881950D8B435EF01F037EFB5
:1002680001F038EF01F01A8A41504210D8A43FEF4C
:1002780001F041EF01F043EF01F094EC02F042BECF
:1002880051EF01F0425007E1100E415CD8B04FEF3A
:1002980001F051EF01F05BEF01F0310E4124D96E0E
:1002A800000E4220DA6E1AC0DFFF414A422AF28E5F
:1002B80016C0DAFF15C0D9FF43921100100E41187D
:1002C8004210D8A46AEF01F06CEF01F0AFEF01F033
:1002D800000E0001646F000E636F310E6325D96E46
:1002E800000E6421DA6EDF50626F62C030F0010EDA
:1002F80067EC02F00001634B642B64BF8DEF01F0E3
:10030800645109E1100E635DD8A08DEF01F08FEF05
:1003180001F071EF01F0000E426E000E416E000E0A
:10032800666F000E656F310E6525D96E000E662169
:10033800DA6E000EDF6E654B662B66BFADEF01F01F
:10034800665109E1100E655DD8A0ADEF01F0AFEF81
:1003580001F097EF01F0120062C01DF063C01EF0BB
:1003680053EC02F062C01DF063C01EF053EC02F0C3
:10037800000E0001646F00F00001642B310E64650B
:10038800C8EF01F0CAEF01F0BFEF01F0000E1E6EDA
:10039800010E1D6E79EC02F0ACEC02F087EC02F075
:1003A800020E306E000E67EC02F00C0E306E000E7E
:1003B80067EC02F0300E306E000E67EC02F01200AF
:1003C8002D6E27500F0B286E296A283A293AF00E0D
:1003D800291628500F0B2912F00E281627C02AF0CC
:1003E800F00E2A162A502C6E2B6A28502B102E6ECF
:1003F80029502C102F6EF80E2DC028F0296AD8909D
:100408002836293628101D6E29501E6E2EC01FF062
:100418002FC020F015EC00F01200136E0B500F0BDC
:100428000C6E0D6A0C3A0D3AF00E0D160C500F0BAF
:100438000D12F00E0C160BC00EF0F00E0E160E502C
:10044800106E0F6A0C500F10116E0D501010126EB6
:10045800F80E13C00CF00D6AD8900C360D360C103F
:10046800016E0D50026E11C003F012C004F08AEC48
:1004780000F012000F0EC1126D96000E826E936886
:100488009468926880949294F19C000E0001636FC6
:10049800010E626FB0EC01F0F28EF2881200939AAE
:1004A8009396939893929394819A819681981DA09C
:1004B80060EF02F062EF02F065EF02F0819466EF00
:1004C80002F0818412000001616F30C027F0000142
:1004D8006151E4EC01F0040E0001606F1C0EE82E7F
:1004E800FED7602FFCD700F012001D501E10D8B4A4
:1004F80080EF02F082EF02F085EF02F0818A86EF4A
:1005080002F0819A1200010E276E000EE4EC01F051
:10051800200E306E2A0EE82EFED7302EFCD71200A1
:10052800010E0B6E000E11EC02F0200E146E2A0E56
:10053800E82EFED7142EFCD7120000EE31F0120E72
:10054800EE6AE806FDE1439043920001B5EF02F040
:100558008192080EE82EFED78182080EE82EFED77B
:1005680012003EEC02F062EC01F0B7EF02F013EF7C
:0205780000F091
:020000040020DA
:08000000FFFFFFFFFFFFFFFF00
:020000040030CA
:0E000000200E1F1EFF8081FF0FC00FE00F407B
:00000001FF
