:0400000013EF00F00A
:060008004382A7ED00F0A9
:100018004380E0CF09F009C0E0FF43901000FAEFF9
:1000280001F036503710D8A41CEF00F01EEF00F096
:1000380020EF00F0A6EF00F060C03EF061C038F09D
:10004800396AFE0E3C24226EFF0E3D20236E385086
:10005800221807E139502318D8A435EF00F037EFFC
:1000680000F0A6EF00F081EF00F0000E256E000E04
:10007800246E4CEF00F0620E2424D96E000E252069
:10008800DA6EDF501D6E010E5CEC02F0244A252A60
:100098003850245C2550800A206E3950800A205838
:1000A800D8A059EF00F05BEF00F03FEF00F0A6EFAB
:1000B80000F0020E1D6E000E5CEC02F0A6EF00F0E0
:1000C800410E1D6E000E5CEC02F0A6EF00F0200E53
:1000D8001D6E000E5CEC02F0A6EF00F00C0E1D6E1B
:1000E800000E5CEC02F0A6EF00F049EC02F0A6EF7F
:1000F80000F086EC02F0A6EF00F03E50206E216A78
:100108002150000AD8B48BEF00F07DEF00F02050AA
:10011800010AD8B439EF00F0030AD8B45DEF00F053
:100128000E0AD8B472EF00F02C0AD8B46BEF00F0C6
:10013800610AD8B464EF00F00F0AD8B479EF00F080
:100148007DEF00F012000600D9CF02F0DACF03F0FD
:10015800F29EF292000E076E00F0072A010E076465
:10016800B8EF00F0BAEF00F0B0EF00F08150800B6C
:10017800046E8050010B056E8050020B066E82CF14
:1001880008F00450D8B4CBEF00F0CDEF00F0CEEF7C
:1001980000F008860550D8B4D4EF00F0D6EF00F090
:1001A800D7EF00F008880650D8B4DDEF00F0DFEF95
:1001B80000F0E0EF00F0088A3BBEECEF00F03B50A7
:1001C80009E1040E3A5CD8A0ECEF00F0EEEF00F085
:1001D80008EF01F0600E3C24D96E000E3D20DA6E67
:1001E80008C0DFFF3C4A3D2A030E3C183D10D8A446
:1001F80000EF01F002EF01F01FEF01F0000E376E83
:10020800010E366E1FEF01F03F0E3A24D96E000E34
:100218003B20DA6E0850DE18D8A415EF01F017EF6E
:1002280001F01BEF01F03A4A3B2A1FEF01F0000EE4
:100238003B6E000E3A6EF28E03C0DAFF02C0D9FFA1
:1002480043921100000E136E000E126E51EF01F072
:10025800800E0A140E6E0F6A800E0E180F10D8A4A6
:1002680038EF01F03AEF01F03DEF01F081883EEF01
:1002780001F0819881500809816E140EE82EFED78E
:100288008150F70B816E140EE82EFED7D8900A34F1
:100298000A6E0B340B6E124A132A13BE5DEF01F07F
:1002A800135009E1080E125CD8A05DEF01F05FEF72
:1002B80001F02CEF01F0000E136E000E126E8CEFA1
:1002C80001F0000E0C14106E800E0D14116E800ECD
:1002D80011181010D8A473EF01F075EF01F078EF42
:1002E80001F0818879EF01F0819881500809816EC9
:1002F800140EE82EFED78150F70B816E140EE82EEF
:10030800FED7D8900C340C6E0D340D6E124A132A99
:1003180013BE98EF01F0135009E1100E125CD8A03B
:1003280098EF01F09AEF01F065EF01F0120020C09C
:100338000AF021C00BF035EC02F020C00AF021C011
:100348000BF035EC02F0000E226E00F0222A310E7E
:100358002264B1EF01F0B3EF01F0A9EF01F0000E54
:100368000B6E010E0A6E6BEC02F049EC02F079ECB0
:1003780002F0020E1D6E000E5CEC02F00C0E1D6EFB
:10038800000E5CEC02F0200E1D6E000E5CEC02F01C
:1003980012001C6E14500F0B156E166A153A163A99
:1003A800F00E161615500F0B1612F00E151614C077
:1003B80017F0F00E17161750196E186A1550181006
:1003C8001A6E165019101B6EF80E1CC015F0166A1E
:1003D800D8901536163615100A6E16500B6E1AC0C0
:1003E8000CF01BC00DF026EC01F012002E0EF66E7C
:1003F800050EF76E000EF86E00EE3FF010EE04F0FA
:100408000900F5CFEEFFE550E150FAE100EE60F0AB
:10041800450EEE6AE806FDE100EE26F0190EEE6ADA
:10042800E806FDE143904392000EF86E00018FEF5D
:1004380002F00F0EC1126D96000E826E93689468DA
:10044800926880949294F18C000E216E010E206EB9
:100458009BEC01F0420EE82EFED700D0F28EF28817
:100468001200939A9396939893929394819A819673
:1004780081980AA042EF02F044EF02F047EF02F041
:10048800819448EF02F0818412008192040E0A6E72
:100498001C0EE82EFED70A2EFCD700D08182040E4F
:1004A8000A6E1C0EE82EFED70A2EFCD700D01200CA
:1004B8001F6E1DC014F01F50CDEC01F0040E1E6E0F
:1004C8001C0EE82EFED71E2EFCD700D012000A50B4
:1004D8000B10D8B472EF02F074EF02F077EF02F06D
:1004E800818A78EF02F0819A1200010E146E000ED4
:1004F800CDEC01F0200E1D6E2A0EE82EFED71D2E23
:10050800FCD71200000E3D6E000E3C6E000E3B6ED6
:10051800000E3A6E12001DEC02F015EC00F091EF9F
:0A05280002F013EF00F0F1214E5B2A
:020000040020DA
:08000000FFFFFFFFFFFFFFFF00
:020000040030CA
:0E000000200E1F1EFF8081FF0FC00FE00F407B
:00000001FF
